{
	"BasicBank/src/BasicBank.sol": {
		"BasicBank": {
			"abi": [
				{
					"inputs": [],
					"name": "AmountNull",
					"type": "error"
				},
				{
					"inputs": [],
					"name": "TransactionFailed",
					"type": "error"
				},
				{
					"inputs": [],
					"name": "addEther",
					"outputs": [],
					"stateMutability": "payable",
					"type": "function"
				},
				{
					"inputs": [
						{
							"internalType": "uint256",
							"name": "amount",
							"type": "uint256"
						}
					],
					"name": "removeEther",
					"outputs": [],
					"stateMutability": "payable",
					"type": "function"
				}
			],
			"devdoc": {
				"errors": {
					"AmountNull()": [
						{
							"details": "it should work properly when called multiple times"
						}
					]
				},
				"kind": "dev",
				"methods": {},
				"version": 1
			},
			"evm": {
				"assembly": "    /* \"BasicBank/src/BasicBank.sol\":63:664  contract BasicBank {... */\n  mstore(0x40, 0x80)\n  callvalue\n  dup1\n  iszero\n  tag_1\n  jumpi\n  revert(0x00, 0x00)\ntag_1:\n  pop\n  dataSize(sub_0)\n  dup1\n  dataOffset(sub_0)\n  0x00\n  codecopy\n  0x00\n  return\nstop\n\nsub_0: assembly {\n        /* \"BasicBank/src/BasicBank.sol\":63:664  contract BasicBank {... */\n      mstore(0x40, 0x80)\n      jumpi(tag_1, lt(calldatasize, 0x04))\n      shr(0xe0, calldataload(0x00))\n      dup1\n      0x787a051b\n      eq\n      tag_2\n      jumpi\n      dup1\n      0x8894dd2b\n      eq\n      tag_3\n      jumpi\n    tag_1:\n      revert(0x00, 0x00)\n        /* \"BasicBank/src/BasicBank.sol\":440:662  function removeEther(uint256 amount) external payable {... */\n    tag_2:\n      tag_4\n      0x04\n      dup1\n      calldatasize\n      sub\n      dup2\n      add\n      swap1\n      tag_5\n      swap2\n      swap1\n      tag_6\n      jump\t// in\n    tag_5:\n      tag_7\n      jump\t// in\n    tag_4:\n      stop\n        /* \"BasicBank/src/BasicBank.sol\":255:345  function addEther() external payable {... */\n    tag_3:\n      tag_8\n      tag_9\n      jump\t// in\n    tag_8:\n      stop\n        /* \"BasicBank/src/BasicBank.sol\":440:662  function removeEther(uint256 amount) external payable {... */\n    tag_7:\n        /* \"BasicBank/src/BasicBank.sol\":521:522  0 */\n      0x00\n        /* \"BasicBank/src/BasicBank.sol\":512:518  amount */\n      dup2\n        /* \"BasicBank/src/BasicBank.sol\":512:522  amount > 0 */\n      gt\n        /* \"BasicBank/src/BasicBank.sol\":504:537  require(amount > 0, AmountNull()) */\n      tag_11\n      jumpi\n      mload(0x40)\n      0x58ad829100000000000000000000000000000000000000000000000000000000\n      dup2\n      mstore\n      0x04\n      add\n      mload(0x40)\n      dup1\n      swap2\n      sub\n      swap1\n      revert\n    tag_11:\n        /* \"BasicBank/src/BasicBank.sol\":548:560  bool success */\n      0x00\n        /* \"BasicBank/src/BasicBank.sol\":573:583  msg.sender */\n      caller\n        /* \"BasicBank/src/BasicBank.sol\":565:589  payable(msg.sender).call */\n      0xffffffffffffffffffffffffffffffffffffffff\n      and\n        /* \"BasicBank/src/BasicBank.sol\":597:603  amount */\n      dup3\n        /* \"BasicBank/src/BasicBank.sol\":565:608  payable(msg.sender).call{value: amount}(\"\") */\n      mload(0x40)\n      tag_12\n      swap1\n      tag_13\n      jump\t// in\n    tag_12:\n      0x00\n      mload(0x40)\n      dup1\n      dup4\n      sub\n      dup2\n      dup6\n      dup8\n      gas\n      call\n      swap3\n      pop\n      pop\n      pop\n      returndatasize\n      dup1\n      0x00\n      dup2\n      eq\n      tag_16\n      jumpi\n      mload(0x40)\n      swap2\n      pop\n      and(add(returndatasize, 0x3f), not(0x1f))\n      dup3\n      add\n      0x40\n      mstore\n      returndatasize\n      dup3\n      mstore\n      returndatasize\n      0x00\n      0x20\n      dup5\n      add\n      returndatacopy\n      jump(tag_15)\n    tag_16:\n      0x60\n      swap2\n      pop\n    tag_15:\n      pop\n        /* \"BasicBank/src/BasicBank.sol\":547:608  (bool success,) = payable(msg.sender).call{value: amount}(\"\") */\n      pop\n      swap1\n      pop\n        /* \"BasicBank/src/BasicBank.sol\":626:633  success */\n      dup1\n        /* \"BasicBank/src/BasicBank.sol\":618:655  require(success, TransactionFailed()) */\n      tag_17\n      jumpi\n      mload(0x40)\n      0xbf961a2800000000000000000000000000000000000000000000000000000000\n      dup2\n      mstore\n      0x04\n      add\n      mload(0x40)\n      dup1\n      swap2\n      sub\n      swap1\n      revert\n    tag_17:\n        /* \"BasicBank/src/BasicBank.sol\":494:662  {... */\n      pop\n        /* \"BasicBank/src/BasicBank.sol\":440:662  function removeEther(uint256 amount) external payable {... */\n      pop\n      jump\t// out\n        /* \"BasicBank/src/BasicBank.sol\":255:345  function addEther() external payable {... */\n    tag_9:\n        /* \"BasicBank/src/BasicBank.sol\":322:323  0 */\n      0x00\n        /* \"BasicBank/src/BasicBank.sol\":310:319  msg.value */\n      callvalue\n        /* \"BasicBank/src/BasicBank.sol\":310:323  msg.value > 0 */\n      gt\n        /* \"BasicBank/src/BasicBank.sol\":302:338  require(msg.value > 0, AmountNull()) */\n      tag_19\n      jumpi\n      mload(0x40)\n      0x58ad829100000000000000000000000000000000000000000000000000000000\n      dup2\n      mstore\n      0x04\n      add\n      mload(0x40)\n      dup1\n      swap2\n      sub\n      swap1\n      revert\n    tag_19:\n        /* \"BasicBank/src/BasicBank.sol\":255:345  function addEther() external payable {... */\n      jump\t// out\n        /* \"#utility.yul\":88:205   */\n    tag_21:\n        /* \"#utility.yul\":197:198   */\n      0x00\n        /* \"#utility.yul\":194:195   */\n      0x00\n        /* \"#utility.yul\":187:199   */\n      revert\n        /* \"#utility.yul\":334:411   */\n    tag_23:\n        /* \"#utility.yul\":371:378   */\n      0x00\n        /* \"#utility.yul\":400:405   */\n      dup2\n        /* \"#utility.yul\":389:405   */\n      swap1\n      pop\n        /* \"#utility.yul\":334:411   */\n      swap2\n      swap1\n      pop\n      jump\t// out\n        /* \"#utility.yul\":417:539   */\n    tag_24:\n        /* \"#utility.yul\":490:514   */\n      tag_35\n        /* \"#utility.yul\":508:513   */\n      dup2\n        /* \"#utility.yul\":490:514   */\n      tag_23\n      jump\t// in\n    tag_35:\n        /* \"#utility.yul\":483:488   */\n      dup2\n        /* \"#utility.yul\":480:515   */\n      eq\n        /* \"#utility.yul\":470:533   */\n      tag_36\n      jumpi\n        /* \"#utility.yul\":529:530   */\n      0x00\n        /* \"#utility.yul\":526:527   */\n      0x00\n        /* \"#utility.yul\":519:531   */\n      revert\n        /* \"#utility.yul\":470:533   */\n    tag_36:\n        /* \"#utility.yul\":417:539   */\n      pop\n      jump\t// out\n        /* \"#utility.yul\":545:684   */\n    tag_25:\n        /* \"#utility.yul\":591:596   */\n      0x00\n        /* \"#utility.yul\":629:635   */\n      dup2\n        /* \"#utility.yul\":616:636   */\n      calldataload\n        /* \"#utility.yul\":607:636   */\n      swap1\n      pop\n        /* \"#utility.yul\":645:678   */\n      tag_38\n        /* \"#utility.yul\":672:677   */\n      dup2\n        /* \"#utility.yul\":645:678   */\n      tag_24\n      jump\t// in\n    tag_38:\n        /* \"#utility.yul\":545:684   */\n      swap3\n      swap2\n      pop\n      pop\n      jump\t// out\n        /* \"#utility.yul\":690:1019   */\n    tag_6:\n        /* \"#utility.yul\":749:755   */\n      0x00\n        /* \"#utility.yul\":798:800   */\n      0x20\n        /* \"#utility.yul\":786:795   */\n      dup3\n        /* \"#utility.yul\":777:784   */\n      dup5\n        /* \"#utility.yul\":773:796   */\n      sub\n        /* \"#utility.yul\":769:801   */\n      slt\n        /* \"#utility.yul\":766:885   */\n      iszero\n      tag_40\n      jumpi\n        /* \"#utility.yul\":804:883   */\n      tag_41\n      tag_21\n      jump\t// in\n    tag_41:\n        /* \"#utility.yul\":766:885   */\n    tag_40:\n        /* \"#utility.yul\":924:925   */\n      0x00\n        /* \"#utility.yul\":949:1002   */\n      tag_42\n        /* \"#utility.yul\":994:1001   */\n      dup5\n        /* \"#utility.yul\":985:991   */\n      dup3\n        /* \"#utility.yul\":974:983   */\n      dup6\n        /* \"#utility.yul\":970:992   */\n      add\n        /* \"#utility.yul\":949:1002   */\n      tag_25\n      jump\t// in\n    tag_42:\n        /* \"#utility.yul\":939:1002   */\n      swap2\n      pop\n        /* \"#utility.yul\":895:1012   */\n      pop\n        /* \"#utility.yul\":690:1019   */\n      swap3\n      swap2\n      pop\n      pop\n      jump\t// out\n        /* \"#utility.yul\":1025:1172   */\n    tag_26:\n        /* \"#utility.yul\":1126:1137   */\n      0x00\n        /* \"#utility.yul\":1163:1166   */\n      dup2\n        /* \"#utility.yul\":1148:1166   */\n      swap1\n      pop\n        /* \"#utility.yul\":1025:1172   */\n      swap3\n      swap2\n      pop\n      pop\n      jump\t// out\n        /* \"#utility.yul\":1178:1292   */\n    tag_27:\n      pop\n      jump\t// out\n        /* \"#utility.yul\":1298:1696   */\n    tag_28:\n        /* \"#utility.yul\":1457:1460   */\n      0x00\n        /* \"#utility.yul\":1478:1561   */\n      tag_46\n        /* \"#utility.yul\":1559:1560   */\n      0x00\n        /* \"#utility.yul\":1554:1557   */\n      dup4\n        /* \"#utility.yul\":1478:1561   */\n      tag_26\n      jump\t// in\n    tag_46:\n        /* \"#utility.yul\":1471:1561   */\n      swap2\n      pop\n        /* \"#utility.yul\":1570:1663   */\n      tag_47\n        /* \"#utility.yul\":1659:1662   */\n      dup3\n        /* \"#utility.yul\":1570:1663   */\n      tag_27\n      jump\t// in\n    tag_47:\n        /* \"#utility.yul\":1688:1689   */\n      0x00\n        /* \"#utility.yul\":1683:1686   */\n      dup3\n        /* \"#utility.yul\":1679:1690   */\n      add\n        /* \"#utility.yul\":1672:1690   */\n      swap1\n      pop\n        /* \"#utility.yul\":1298:1696   */\n      swap2\n      swap1\n      pop\n      jump\t// out\n        /* \"#utility.yul\":1702:2081   */\n    tag_13:\n        /* \"#utility.yul\":1886:1889   */\n      0x00\n        /* \"#utility.yul\":1908:2055   */\n      tag_49\n        /* \"#utility.yul\":2051:2054   */\n      dup3\n        /* \"#utility.yul\":1908:2055   */\n      tag_28\n      jump\t// in\n    tag_49:\n        /* \"#utility.yul\":1901:2055   */\n      swap2\n      pop\n        /* \"#utility.yul\":2072:2075   */\n      dup2\n        /* \"#utility.yul\":2065:2075   */\n      swap1\n      pop\n        /* \"#utility.yul\":1702:2081   */\n      swap2\n      swap1\n      pop\n      jump\t// out\n\n    auxdata: 0xa264697066735822122080b5f459b297d0e1406064477a6d9f1adaa10a22cdaf9be90a90b53b2013d93a64736f6c634300081b0033\n}\n",
				"bytecode": {
					"linkReferences": {},
					"object": "6080604052348015600e575f5ffd5b506102428061001c5f395ff3fe608060405260043610610028575f3560e01c8063787a051b1461002c5780638894dd2b14610048575b5f5ffd5b610046600480360381019061004191906101a0565b610052565b005b61005061012e565b005b5f811161008b576040517f58ad829100000000000000000000000000000000000000000000000000000000815260040160405180910390fd5b5f3373ffffffffffffffffffffffffffffffffffffffff16826040516100b0906101f8565b5f6040518083038185875af1925050503d805f81146100ea576040519150601f19603f3d011682016040523d82523d5f602084013e6100ef565b606091505b505090508061012a576040517fbf961a2800000000000000000000000000000000000000000000000000000000815260040160405180910390fd5b5050565b5f3411610167576040517f58ad829100000000000000000000000000000000000000000000000000000000815260040160405180910390fd5b565b5f5ffd5b5f819050919050565b61017f8161016d565b8114610189575f5ffd5b50565b5f8135905061019a81610176565b92915050565b5f602082840312156101b5576101b4610169565b5b5f6101c28482850161018c565b91505092915050565b5f81905092915050565b50565b5f6101e35f836101cb565b91506101ee826101d5565b5f82019050919050565b5f610202826101d8565b915081905091905056fea264697066735822122080b5f459b297d0e1406064477a6d9f1adaa10a22cdaf9be90a90b53b2013d93a64736f6c634300081b0033",
					"opcodes": "PUSH1 0x80 PUSH1 0x40 MSTORE CALLVALUE DUP1 ISZERO PUSH1 0xE JUMPI PUSH0 PUSH0 REVERT JUMPDEST POP PUSH2 0x242 DUP1 PUSH2 0x1C PUSH0 CODECOPY PUSH0 RETURN INVALID PUSH1 0x80 PUSH1 0x40 MSTORE PUSH1 0x4 CALLDATASIZE LT PUSH2 0x28 JUMPI PUSH0 CALLDATALOAD PUSH1 0xE0 SHR DUP1 PUSH4 0x787A051B EQ PUSH2 0x2C JUMPI DUP1 PUSH4 0x8894DD2B EQ PUSH2 0x48 JUMPI JUMPDEST PUSH0 PUSH0 REVERT JUMPDEST PUSH2 0x46 PUSH1 0x4 DUP1 CALLDATASIZE SUB DUP2 ADD SWAP1 PUSH2 0x41 SWAP2 SWAP1 PUSH2 0x1A0 JUMP JUMPDEST PUSH2 0x52 JUMP JUMPDEST STOP JUMPDEST PUSH2 0x50 PUSH2 0x12E JUMP JUMPDEST STOP JUMPDEST PUSH0 DUP2 GT PUSH2 0x8B JUMPI PUSH1 0x40 MLOAD PUSH32 0x58AD829100000000000000000000000000000000000000000000000000000000 DUP2 MSTORE PUSH1 0x4 ADD PUSH1 0x40 MLOAD DUP1 SWAP2 SUB SWAP1 REVERT JUMPDEST PUSH0 CALLER PUSH20 0xFFFFFFFFFFFFFFFFFFFFFFFFFFFFFFFFFFFFFFFF AND DUP3 PUSH1 0x40 MLOAD PUSH2 0xB0 SWAP1 PUSH2 0x1F8 JUMP JUMPDEST PUSH0 PUSH1 0x40 MLOAD DUP1 DUP4 SUB DUP2 DUP6 DUP8 GAS CALL SWAP3 POP POP POP RETURNDATASIZE DUP1 PUSH0 DUP2 EQ PUSH2 0xEA JUMPI PUSH1 0x40 MLOAD SWAP2 POP PUSH1 0x1F NOT PUSH1 0x3F RETURNDATASIZE ADD AND DUP3 ADD PUSH1 0x40 MSTORE RETURNDATASIZE DUP3 MSTORE RETURNDATASIZE PUSH0 PUSH1 0x20 DUP5 ADD RETURNDATACOPY PUSH2 0xEF JUMP JUMPDEST PUSH1 0x60 SWAP2 POP JUMPDEST POP POP SWAP1 POP DUP1 PUSH2 0x12A JUMPI PUSH1 0x40 MLOAD PUSH32 0xBF961A2800000000000000000000000000000000000000000000000000000000 DUP2 MSTORE PUSH1 0x4 ADD PUSH1 0x40 MLOAD DUP1 SWAP2 SUB SWAP1 REVERT JUMPDEST POP POP JUMP JUMPDEST PUSH0 CALLVALUE GT PUSH2 0x167 JUMPI PUSH1 0x40 MLOAD PUSH32 0x58AD829100000000000000000000000000000000000000000000000000000000 DUP2 MSTORE PUSH1 0x4 ADD PUSH1 0x40 MLOAD DUP1 SWAP2 SUB SWAP1 REVERT JUMPDEST JUMP JUMPDEST PUSH0 PUSH0 REVERT JUMPDEST PUSH0 DUP2 SWAP1 POP SWAP2 SWAP1 POP JUMP JUMPDEST PUSH2 0x17F DUP2 PUSH2 0x16D JUMP JUMPDEST DUP2 EQ PUSH2 0x189 JUMPI PUSH0 PUSH0 REVERT JUMPDEST POP JUMP JUMPDEST PUSH0 DUP2 CALLDATALOAD SWAP1 POP PUSH2 0x19A DUP2 PUSH2 0x176 JUMP JUMPDEST SWAP3 SWAP2 POP POP JUMP JUMPDEST PUSH0 PUSH1 0x20 DUP3 DUP5 SUB SLT ISZERO PUSH2 0x1B5 JUMPI PUSH2 0x1B4 PUSH2 0x169 JUMP JUMPDEST JUMPDEST PUSH0 PUSH2 0x1C2 DUP5 DUP3 DUP6 ADD PUSH2 0x18C JUMP JUMPDEST SWAP2 POP POP SWAP3 SWAP2 POP POP JUMP JUMPDEST PUSH0 DUP2 SWAP1 POP SWAP3 SWAP2 POP POP JUMP JUMPDEST POP JUMP JUMPDEST PUSH0 PUSH2 0x1E3 PUSH0 DUP4 PUSH2 0x1CB JUMP JUMPDEST SWAP2 POP PUSH2 0x1EE DUP3 PUSH2 0x1D5 JUMP JUMPDEST PUSH0 DUP3 ADD SWAP1 POP SWAP2 SWAP1 POP JUMP JUMPDEST PUSH0 PUSH2 0x202 DUP3 PUSH2 0x1D8 JUMP JUMPDEST SWAP2 POP DUP2 SWAP1 POP SWAP2 SWAP1 POP JUMP INVALID LOG2 PUSH5 0x6970667358 0x22 SLT KECCAK256 DUP1 0xB5 DELEGATECALL MSIZE 0xB2 SWAP8 0xD0 0xE1 BLOCKHASH PUSH1 0x64 SELFBALANCE PUSH27 0x6D9F1ADAA10A22CDAF9BE90A90B53B2013D93A64736F6C63430008 SHL STOP CALLER "
				},
				"gasEstimates": {
					"creation": {
						"codeDepositCost": "115600",
						"executionCost": "163",
						"totalCost": "115763"
					},
					"external": {
						"addEther()": "175",
						"removeEther(uint256)": "infinite"
					}
				},
				"methodIdentifiers": {
					"addEther()": "8894dd2b",
					"removeEther(uint256)": "787a051b"
				}
			},
			"storageLayout": {
				"storage": [],
				"types": null
			},
			"userdoc": {
				"errors": {
					"AmountNull()": [
						{
							"notice": "deposit ether into the contract"
						}
					]
				},
				"kind": "user",
				"methods": {
					"removeEther(uint256)": {
						"notice": "used to withdraw ether from the contract (No restriction on withdrawals)"
					}
				},
				"version": 1
			}
		}
	}
}